:020000040040BA
:10000000E834002045074000410740004107400018
:100010004107400041074000410740000000000048
:100020000000000000000000000000004107400048
:100030004107400000000000410740004107400028
:100040004107400041074000410740004107400090
:100050004107400041074000410740004107400080
:10006000410740004107400000000000B106400089
:10007000C5064000D9064000410740004107400046
:100080000000000000000000410740004107400060
:10009000410740004107400041074000F107400090
:1000A0004107400041074000410740004107400030
:1000B0004107400041074000410740004107400020
:1000C00041074000410740004107400010B5054C82
:1000D000237833B9044B13B10448AFF300800123F4
:1000E000237010BD2C04002000000000440A4000D2
:1000F0000C4B43B10C480D4910B5AFF300800C48D0
:10010000036823B910BD0A48036833B97047094B27
:10011000002BF7D0BDE810401847064B002BF5D058
:10012000184700BF00000000440A400030040020CF
:10013000440A40000000000010B489014318022462
:1001400044504FF0FF319962196A5A6010BC7047F1
:10015000890105234350704700EB8111CA61704744
:1001600000EB81114A62704700EB8111086A704709
:10017000F0B486B00224019408240294202403944D
:10018000802404940A9CE40B0594B0EB510F14D81E
:100190004C0CA04217D2012501AF57F82540B1FB06
:1001A000F4F4260C84420AD386420DD90135052D7C
:1001B000F3D1002006B0F0BC70470020FAE7002021
:1001C000F8E70120F6E700252AB106A901EB850131
:1001D00051F8141C1160002BF3D01D600120E9E7D9
:1001E00038B54FF40042464B5A600B20454CA047AF
:1001F0000C20A0470D20A0474FF060511320424C27
:10020000A0474FF060511420A04740492320A04749
:100210003F494C20A0474FF000624FF4C0613D4879
:100220003D4B98474FF080510020A0474FF0805140
:100230000820A0474FF080515220A0474FF00061A6
:100240000C20A0474FF000610D20A0474FF0006147
:100250000E20A0474FF000610B20A0474FF0006137
:100260001520A0474FF000611620A0474FF04051E5
:100270001720A0471720294B9847294D2946402091
:10028000A04729464120A04729464220A0472946A9
:100290004320A04729464420A04729464520A0479F
:1002A00029464620A04729464720A04729464B20FB
:1002B000A04729464820A04729464F20A047294665
:1002C0005320A0474FF040514D20A04705F1005565
:1002D00029461020A04729461120A0474FF0006171
:1002E0000C20A0474FF000610D20A0474FF00061A7
:1002F0000E20A0474FF000610B20A04738BD00BF83
:1003000050140E40ED0640005104400079000028D2
:1003100059000028000E0E407105400015044000F1
:10032000010000084264B1F1C05F39D013D8B1F1C7
:10033000006F25D0B1F1805F0AD1036F13430367CB
:10034000436F416F0B4023EA0203436742607047EB
:100350000029FBD17047B1F1205F20D009D8B1F15D
:10036000005FF3D1036F13430367436F1343436786
:10037000ECE7B1F1405F12D0B1F1605F0FD0E5E77B
:1003800010B4016F046FD34321401C46194001672C
:10039000436F416F0B4023404367426010BC70477E
:1003A000036F016F0B4023EA02030367436F13439C
:1003B0004367CBE7416412F0010F14BF4166016649
:1003C00012F00A0F14BF0162416212F0020F07D14E
:1003D00012F0080F18BFC0F8841041610160704727
:1003E000C0F88010F9E710B4019C416444B901667B
:1003F00043B1016542B941630161016010BC7047BE
:100400004166F5E74165F5E70163F5E7C06C7047C4
:10041000806C7047430903F5001303F207735B0216
:1004200000F01F00012202FA00F0586370474309F0
:1004300003F5001303F207735B02996B00F01F02D0
:1004400001209040014214BF5863186370470000B8
:1004500070B582B00D46430903F5001303F207732C
:100460005C0201F0F043B3F1005F53D00AD8B3F15E
:10047000805F2DD0B3F1C05F3BD0B3F1006F15D0DA
:10048000002023E0B3F1405F55D0B3F1605F52D05C
:10049000B3F1205FF4D100F01F0101262A4606FACD
:1004A00001F120462F4B984730460FE000F01F0027
:1004B0000126864032464FF0006120462A4B98477D
:1004C00015F0010F14BF66662666012002B070BDEC
:1004D00000F01F000126864032464FF08051204632
:1004E000214B984715F0010F14BF66662666012060
:1004F000ECE700F01F000126864032464FF0C05165
:100500002046194B984715F0010F14BF6666266602
:100510000120DBE700F01F000126864032464FF045
:1005200000512046104B984715F0010F14BF666626
:1005300026660120CAE705F0605200F01F0101267F
:1005400005EA06030093C5F38003B2F1605F14BFB0
:100550000022012206FA01F12046044CA047304651
:10056000B4E700BFB503400025034000E7034000A7
:1005700070B582B005460E46144602F0F043B3F162
:10058000005F3DD00AD8B3F1805F21D0B3F1C05FE6
:100590002AD0B3F1006F0ED0002017E0B3F1405F16
:1005A0003AD0B3F1605F37D0B3F1205FF4D1234B81
:1005B000984701200AE00A464FF00061204B984717
:1005C00014F0010F14BF6E662E66012002B070BDDC
:1005D0000A464FF080511A4B984714F0010F14BF90
:1005E0006E662E660120F1E70A464FF0C051144BAB
:1005F000984714F0010F14BF6E662E660120E5E7E0
:100600000A464FF000510E4B984714F0010F14BFEB
:100610006E662E660120D9E704F0605204F00103F3
:100620000093C4F38003B2F1605F14BF0022012283
:1006300031462846034CA0470120C7E7B5034000D8
:1006400025034000E70340002DE9F84381460F46AB
:10065000124B984705464846114B9847054013D022
:10066000104C04F1600603E0B4420DD010345DB1CB
:100670002068B842F8D161682942F5D0E36898470C
:10068000636825EA0305EFE7074B1B6823B1074BB7
:100690001B680BB148469847BDE8F8830D0440003D
:1006A0001104400048040020BC040020B8040020CD
:1006B00008B50B210148024B984708BD000E0E40BB
:1006C0004906400008B50C210148024B984708BD77
:1006D00000100E404906400008B50D210148024BAC
:1006E000984708BD00120E404906400022281ED837
:1006F0001F280CD8114B9A6901238340934318D0CB
:10070000012303FA00F00D4B1861002070472038D8
:100710000A4BD3F808210123834093430BD00123D4
:1007200003FA00F0054BC3F80001002070470120D8
:100730007047002070470020704700BF00040E4043
:10074000FEE7000008B5214B214A9A4228D9214BE7
:100750001E4A9A420CD2013B9B1A23F00303043336
:1007600013441B4951F8040B42F8040B9A42F9D187
:1007700000BF194B194A9A420AD2013B9B1A23F037
:10078000030304331344002142F8041B9A42FBD1B3
:10079000134B144A9A60144B9847144B9847FEE742
:1007A0000A4B0B4A9A42E3D20A4B0848181A1146E0
:1007B000043A02440028DBD0C1F1040152F80409D4
:1007C00043F8040DCA42F9D1D2E700BF000000206F
:1007D000440A40002C040020E40400202C040020E3
:1007E00000ED00E000004000AD08400011084000AE
:1007F00008B500210348044B98471320034B984742
:1008000008BD00BF00000140690140002F04400006
:1008100030B585B01A4B984717201A4B98471A4C99
:10082000009403AB02AA21460A20184DA847184D90
:10083000039A42F4804200212846164B9847029AB8
:10084000B4FBF2F4144AA2FB0432D2080021284679
:10085000124B9847124B4FF40002C3F880214021FD
:1008600083F817131A601022002128460D4B984771
:10087000002128460C4B9847002005B030BD00BF32
:10088000E1014000ED064000000E27077101400025
:100890000000014039014000CDCCCCCC59014000D2
:1008A00000E100E0610140005101400070B50F4ED1
:1008B0000F4D761BB61018BF002405D0013455F833
:1008C000043B9847A642F9D10A4E0B4D761B00F027
:1008D000A7F8B61018BF002406D0013455F8043B21
:1008E0009847A642F9D170BD70BD00BF2C0A4000E8
:1008F0002C0A4000340A40002C0A4000024B13B17D
:10090000024800F005B87047000000001D094000D3
:10091000002301461A46184600F01EB838B50A4CA6
:100920000A4D641BA4100AD004F18043013B05EB7F
:100930008305013C55F804399847002CF9D1BDE8EE
:10094000384000F077B800BF440A4000400A400039
:10095000704700BF704700BF2DE9F8432C4D064695
:10096000286898460F469146FFF7F2FF294B1C680E
:10097000D4F84831002B3ED05A681F2A1CDC02F103
:10098000010E76B103EB82010124C1F88890D3F8FF
:10099000880194402043022EC3F88801C1F80881E1
:1009A00023D00232C3F804E0286843F82270FFF72E
:1009B000D1FF0020BDE8F883174B0BB34FF4C8708C
:1009C000AFF300800346D8B1D4F84821026000217B
:1009D00041600A46C4F848014FF0010EC0F8881182
:1009E000C0F88C11002EDCD0CCE7D3F88C110C436E
:1009F000C3F88C41D5E704F5A673C4F84831BBE7CA
:100A00002868FFF7A7FF4FF0FF30BDE8F88300BF6D
:100A1000280400201C0A4000000000000000002004
:100A2000F8B500BFF8BC08BC9E467047FD08400002
:100A3000F1004000F8B500BFF8BC08BC9E46704706
:040A4000CD004000A5
:100A440000000000EC02002054030020BC0300203E
:100A54000000000000000000000000000000000092
:100A64000000000000000000000000000000000082
:100A74000000000000000000000000000000000072
:100A84000000000000000000000000000000000062
:100A94000000000000000000000000000000000052
:100AA4000000000000000000000000000000000042
:100AB4000000000000000000000000000000000032
:100AC4000000000000000000000000000000000022
:100AD4000000000000000000000000000000000012
:100AE4000000000000000000010000000000000001
:100AF4000E33CDAB34126DE6ECDE05000B000000C6
:100B040000000000000000000000000000000000E1
:100B140000000000000000000000000000000000D1
:100B240000000000000000000000000000000000C1
:100B340000000000000000000000000000000000B1
:0C0E64000000000000000000C00400209E
:04000005004007456B
:00000001FF
